{
  "contractName": "TimeSlotVote",
  "abi": [
    {
      "constant": false,
      "inputs": [
        {
          "name": "_slot_start_proposal",
          "type": "uint64"
        }
      ],
      "name": "makeProposalAsVoter",
      "outputs": [],
      "payable": false,
      "stateMutability": "nonpayable",
      "type": "function"
    },
    {
      "constant": true,
      "inputs": [
        {
          "name": "",
          "type": "uint64"
        }
      ],
      "name": "proposals",
      "outputs": [
        {
          "name": "slot_start_proposal",
          "type": "uint64"
        },
        {
          "name": "approved",
          "type": "bool"
        },
        {
          "name": "author",
          "type": "address"
        }
      ],
      "payable": false,
      "stateMutability": "view",
      "type": "function"
    },
    {
      "constant": false,
      "inputs": [
        {
          "name": "proposalIndex",
          "type": "uint64"
        }
      ],
      "name": "voteForProposalAtIndex",
      "outputs": [],
      "payable": false,
      "stateMutability": "nonpayable",
      "type": "function"
    },
    {
      "constant": false,
      "inputs": [],
      "name": "close",
      "outputs": [],
      "payable": false,
      "stateMutability": "nonpayable",
      "type": "function"
    },
    {
      "constant": true,
      "inputs": [],
      "name": "span_in_ms",
      "outputs": [
        {
          "name": "",
          "type": "uint64"
        }
      ],
      "payable": false,
      "stateMutability": "view",
      "type": "function"
    },
    {
      "constant": true,
      "inputs": [],
      "name": "getProposals",
      "outputs": [
        {
          "name": "starts",
          "type": "uint64[]"
        },
        {
          "name": "approveds",
          "type": "bool[]"
        },
        {
          "name": "authors",
          "type": "address[]"
        },
        {
          "name": "votes",
          "type": "bool[]"
        }
      ],
      "payable": false,
      "stateMutability": "view",
      "type": "function"
    },
    {
      "constant": true,
      "inputs": [],
      "name": "numberOfProposal",
      "outputs": [
        {
          "name": "",
          "type": "uint64"
        }
      ],
      "payable": false,
      "stateMutability": "view",
      "type": "function"
    },
    {
      "constant": false,
      "inputs": [
        {
          "name": "_slot_start_proposal",
          "type": "uint64"
        }
      ],
      "name": "makeProposalAsOwner",
      "outputs": [],
      "payable": false,
      "stateMutability": "nonpayable",
      "type": "function"
    },
    {
      "constant": true,
      "inputs": [],
      "name": "owner",
      "outputs": [
        {
          "name": "",
          "type": "address"
        }
      ],
      "payable": false,
      "stateMutability": "view",
      "type": "function"
    },
    {
      "constant": true,
      "inputs": [
        {
          "name": "",
          "type": "address"
        }
      ],
      "name": "votersMap",
      "outputs": [
        {
          "name": "",
          "type": "bool"
        }
      ],
      "payable": false,
      "stateMutability": "view",
      "type": "function"
    },
    {
      "constant": false,
      "inputs": [
        {
          "name": "proposalIndex",
          "type": "uint64"
        }
      ],
      "name": "approveProposal",
      "outputs": [],
      "payable": false,
      "stateMutability": "nonpayable",
      "type": "function"
    },
    {
      "constant": true,
      "inputs": [
        {
          "name": "proposalIndex",
          "type": "uint64"
        },
        {
          "name": "voter",
          "type": "address"
        }
      ],
      "name": "haveVotedProposal",
      "outputs": [
        {
          "name": "",
          "type": "bool"
        }
      ],
      "payable": false,
      "stateMutability": "view",
      "type": "function"
    },
    {
      "constant": true,
      "inputs": [],
      "name": "getVoters",
      "outputs": [
        {
          "name": "",
          "type": "address[]"
        }
      ],
      "payable": false,
      "stateMutability": "view",
      "type": "function"
    },
    {
      "constant": true,
      "inputs": [
        {
          "name": "",
          "type": "uint256"
        }
      ],
      "name": "voters",
      "outputs": [
        {
          "name": "",
          "type": "address"
        }
      ],
      "payable": false,
      "stateMutability": "view",
      "type": "function"
    },
    {
      "inputs": [
        {
          "name": "_span_in_ms",
          "type": "uint64"
        },
        {
          "name": "_voters",
          "type": "address[]"
        }
      ],
      "payable": false,
      "stateMutability": "nonpayable",
      "type": "constructor"
    }
  ],
  "bytecode": "0x606060405234156200001057600080fd5b6040516200152a3803806200152a833981016040528080519060200190919080518201919050506000336000806101000a81548173ffffffffffffffffffffffffffffffffffffffff021916908373ffffffffffffffffffffffffffffffffffffffff16021790555082600060146101000a81548167ffffffffffffffff021916908367ffffffffffffffff1602179055508160019080519060200190620000ba929190620001a1565b506015600180549050101515620000d057600080fd5b600090505b6001805490508167ffffffffffffffff161015620001985760016002600060018467ffffffffffffffff168154811015156200010d57fe5b906000526020600020900160009054906101000a900473ffffffffffffffffffffffffffffffffffffffff1673ffffffffffffffffffffffffffffffffffffffff1673ffffffffffffffffffffffffffffffffffffffff16815260200190815260200160002060006101000a81548160ff0219169083151502179055508080600101915050620000d5565b50505062000276565b8280548282559060005260206000209081019282156200021d579160200282015b828111156200021c5782518260006101000a81548173ffffffffffffffffffffffffffffffffffffffff021916908373ffffffffffffffffffffffffffffffffffffffff16021790555091602001919060010190620001c2565b5b5090506200022c919062000230565b5090565b6200027391905b808211156200026f57600081816101000a81549073ffffffffffffffffffffffffffffffffffffffff02191690555060010162000237565b5090565b90565b6112a480620002866000396000f3006060604052600436106100d0576000357c0100000000000000000000000000000000000000000000000000000000900463ffffffff1680631fc9b54b146100d557806331c5eec81461010257806339afadf11461019557806343d726d6146101c257806350a8c2d1146101d757806362564c481461021457806366aa127f1461035657806375258d97146103935780638da5cb5b146103c0578063ae66d4f414610415578063c0a47f9e14610466578063c20bfc3e14610493578063cdd72253146104f7578063da58c7d914610561575b600080fd5b34156100e057600080fd5b610100600480803567ffffffffffffffff169060200190919050506105c4565b005b341561010d57600080fd5b61012d600480803567ffffffffffffffff1690602001909190505061071b565b604051808467ffffffffffffffff1667ffffffffffffffff168152602001831515151581526020018273ffffffffffffffffffffffffffffffffffffffff1673ffffffffffffffffffffffffffffffffffffffff168152602001935050505060405180910390f35b34156101a057600080fd5b6101c0600480803567ffffffffffffffff16906020019091905050610786565b005b34156101cd57600080fd5b6101d5610982565b005b34156101e257600080fd5b6101ea610a17565b604051808267ffffffffffffffff1667ffffffffffffffff16815260200191505060405180910390f35b341561021f57600080fd5b610227610a31565b6040518080602001806020018060200180602001858103855289818151815260200191508051906020019060200280838360005b8381101561027657808201518184015260208101905061025b565b50505050905001858103845288818151815260200191508051906020019060200280838360005b838110156102b857808201518184015260208101905061029d565b50505050905001858103835287818151815260200191508051906020019060200280838360005b838110156102fa5780820151818401526020810190506102df565b50505050905001858103825286818151815260200191508051906020019060200280838360005b8381101561033c578082015181840152602081019050610321565b505050509050019850505050505050505060405180910390f35b341561036157600080fd5b610369610e56565b604051808267ffffffffffffffff1667ffffffffffffffff16815260200191505060405180910390f35b341561039e57600080fd5b6103be600480803567ffffffffffffffff16906020019091905050610e70565b005b34156103cb57600080fd5b6103d3610fca565b604051808273ffffffffffffffffffffffffffffffffffffffff1673ffffffffffffffffffffffffffffffffffffffff16815260200191505060405180910390f35b341561042057600080fd5b61044c600480803573ffffffffffffffffffffffffffffffffffffffff16906020019091905050610fef565b604051808215151515815260200191505060405180910390f35b341561047157600080fd5b610491600480803567ffffffffffffffff1690602001909190505061100f565b005b341561049e57600080fd5b6104dd600480803567ffffffffffffffff1690602001909190803573ffffffffffffffffffffffffffffffffffffffff169060200190919050506110ea565b604051808215151515815260200191505060405180910390f35b341561050257600080fd5b61050a611169565b6040518080602001828103825283818151815260200191508051906020019060200280838360005b8381101561054d578082015181840152602081019050610532565b505050509050019250505060405180910390f35b341561056c57600080fd5b61058260048080359060200190919050506111fd565b604051808273ffffffffffffffffffffffffffffffffffffffff1673ffffffffffffffffffffffffffffffffffffffff16815260200191505060405180910390f35b6000600260003373ffffffffffffffffffffffffffffffffffffffff1673ffffffffffffffffffffffffffffffffffffffff16815260200190815260200160002060009054906101000a900460ff16151561061e57600080fd5b600360006004600081819054906101000a900467ffffffffffffffff168092919060010191906101000a81548167ffffffffffffffff021916908367ffffffffffffffff16021790555067ffffffffffffffff1667ffffffffffffffff1681526020019081526020016000209050818160000160006101000a81548167ffffffffffffffff021916908367ffffffffffffffff160217905550338160000160096101000a81548173ffffffffffffffffffffffffffffffffffffffff021916908373ffffffffffffffffffffffffffffffffffffffff16021790555060008160000160086101000a81548160ff0219169083151502179055505050565b60036020528060005260406000206000915090508060000160009054906101000a900467ffffffffffffffff16908060000160089054906101000a900460ff16908060000160099054906101000a900473ffffffffffffffffffffffffffffffffffffffff16905083565b600260003373ffffffffffffffffffffffffffffffffffffffff1673ffffffffffffffffffffffffffffffffffffffff16815260200190815260200160002060009054906101000a900460ff1615156107de57600080fd5b80600460009054906101000a900467ffffffffffffffff1667ffffffffffffffff168167ffffffffffffffff1610151561081757600080fd5b600360008367ffffffffffffffff1667ffffffffffffffff168152602001908152602001600020606060405190810160405290816000820160009054906101000a900467ffffffffffffffff1667ffffffffffffffff1667ffffffffffffffff1681526020016000820160089054906101000a900460ff161515151581526020016000820160099054906101000a900473ffffffffffffffffffffffffffffffffffffffff1673ffffffffffffffffffffffffffffffffffffffff1673ffffffffffffffffffffffffffffffffffffffff1681525050806020015115156108fd57600080fd5b6001600360008567ffffffffffffffff1667ffffffffffffffff16815260200190815260200160002060010160003373ffffffffffffffffffffffffffffffffffffffff1673ffffffffffffffffffffffffffffffffffffffff16815260200190815260200160002060006101000a81548160ff021916908315150217905550505050565b6000809054906101000a900473ffffffffffffffffffffffffffffffffffffffff1673ffffffffffffffffffffffffffffffffffffffff163373ffffffffffffffffffffffffffffffffffffffff161415156109dd57600080fd5b6000809054906101000a900473ffffffffffffffffffffffffffffffffffffffff1673ffffffffffffffffffffffffffffffffffffffff16ff5b600060149054906101000a900467ffffffffffffffff1681565b610a3961123c565b610a41611250565b610a49611264565b610a51611250565b600080600460009054906101000a900467ffffffffffffffff1667ffffffffffffffff16604051805910610a825750595b90808252806020026020018201604052509550600460009054906101000a900467ffffffffffffffff1667ffffffffffffffff16604051805910610ac35750595b90808252806020026020018201604052509450600460009054906101000a900467ffffffffffffffff1667ffffffffffffffff16604051805910610b045750595b90808252806020026020018201604052509350600180549050600460009054906101000a900467ffffffffffffffff1667ffffffffffffffff1602604051805910610b4c5750595b90808252806020026020018201604052509250600091505b600460009054906101000a900467ffffffffffffffff1667ffffffffffffffff168267ffffffffffffffff161015610e4257600360008367ffffffffffffffff1667ffffffffffffffff16815260200190815260200160002060000160009054906101000a900467ffffffffffffffff16868367ffffffffffffffff16815181101515610bed57fe5b9060200190602002019067ffffffffffffffff16908167ffffffffffffffff1681525050600360008367ffffffffffffffff1667ffffffffffffffff16815260200190815260200160002060000160089054906101000a900460ff16858367ffffffffffffffff16815181101515610c6157fe5b9060200190602002019015159081151581525050600360008367ffffffffffffffff1667ffffffffffffffff16815260200190815260200160002060000160099054906101000a900473ffffffffffffffffffffffffffffffffffffffff16848367ffffffffffffffff16815181101515610cd857fe5b9060200190602002019073ffffffffffffffffffffffffffffffffffffffff16908173ffffffffffffffffffffffffffffffffffffffff1681525050600090505b6001805490508167ffffffffffffffff161015610e3557600360008367ffffffffffffffff1667ffffffffffffffff168152602001908152602001600020600101600060018367ffffffffffffffff16815481101515610d7557fe5b906000526020600020900160009054906101000a900473ffffffffffffffffffffffffffffffffffffffff1673ffffffffffffffffffffffffffffffffffffffff1673ffffffffffffffffffffffffffffffffffffffff16815260200190815260200160002060009054906101000a900460ff16838267ffffffffffffffff166001805490508567ffffffffffffffff160201815181101515610e1457fe5b90602001906020020190151590811515815250508080600101915050610d19565b8180600101925050610b64565b858585859550955095509550505090919293565b600460009054906101000a900467ffffffffffffffff1681565b60008060009054906101000a900473ffffffffffffffffffffffffffffffffffffffff1673ffffffffffffffffffffffffffffffffffffffff163373ffffffffffffffffffffffffffffffffffffffff16141515610ecd57600080fd5b600360006004600081819054906101000a900467ffffffffffffffff168092919060010191906101000a81548167ffffffffffffffff021916908367ffffffffffffffff16021790555067ffffffffffffffff1667ffffffffffffffff1681526020019081526020016000209050818160000160006101000a81548167ffffffffffffffff021916908367ffffffffffffffff160217905550338160000160096101000a81548173ffffffffffffffffffffffffffffffffffffffff021916908373ffffffffffffffffffffffffffffffffffffffff16021790555060018160000160086101000a81548160ff0219169083151502179055505050565b6000809054906101000a900473ffffffffffffffffffffffffffffffffffffffff1681565b60026020528060005260406000206000915054906101000a900460ff1681565b6000809054906101000a900473ffffffffffffffffffffffffffffffffffffffff1673ffffffffffffffffffffffffffffffffffffffff163373ffffffffffffffffffffffffffffffffffffffff1614151561106a57600080fd5b80600460009054906101000a900467ffffffffffffffff1667ffffffffffffffff168167ffffffffffffffff161015156110a357600080fd5b6001600360008467ffffffffffffffff1667ffffffffffffffff16815260200190815260200160002060000160086101000a81548160ff0219169083151502179055505050565b6000600360008467ffffffffffffffff1667ffffffffffffffff16815260200190815260200160002060010160008373ffffffffffffffffffffffffffffffffffffffff1673ffffffffffffffffffffffffffffffffffffffff16815260200190815260200160002060009054906101000a900460ff16905092915050565b611171611264565b60018054806020026020016040519081016040528092919081815260200182805480156111f357602002820191906000526020600020905b8160009054906101000a900473ffffffffffffffffffffffffffffffffffffffff1673ffffffffffffffffffffffffffffffffffffffff16815260200190600101908083116111a9575b5050505050905090565b60018181548110151561120c57fe5b90600052602060002090016000915054906101000a900473ffffffffffffffffffffffffffffffffffffffff1681565b602060405190810160405280600081525090565b602060405190810160405280600081525090565b6020604051908101604052806000815250905600a165627a7a7230582092d87b026201892ad2bbe652ca3c09410cac79e0b34f3cfe5a6f52c098da75400029",
  "source": "pragma solidity ^0.4.18;\r\n\r\ncontract TimeSlotVote {\r\n   \r\n   //The owner of the vote\r\n   address public owner;\r\n   \r\n   //How long the time slot should be in milliseconds\r\n   uint64 public span_in_ms;\r\n   \r\n   //Allowed voters\r\n   address[] public voters;\r\n   mapping(address => bool) public votersMap;\r\n   function getVoters() public view returns (address[]) {\r\n       return voters;\r\n   }\r\n   \r\n   struct TimeSlotProposal {\r\n       uint64 slot_start_proposal;\r\n       bool approved;\r\n       address author;\r\n       mapping(address => bool) votes;\r\n   }\r\n   \r\n   mapping(uint64 => TimeSlotProposal) public proposals;\r\n   uint64 public numberOfProposal;\r\n   function haveVotedProposal(uint64 proposalIndex, address voter) \r\n   public view returns (bool) {\r\n        return proposals[proposalIndex].votes[voter];\r\n    }\r\n   function getProposals() \r\n   public view returns (uint64[] starts, bool[] approveds, address[] authors, bool[] votes) {\r\n        starts = new uint64[](numberOfProposal);\r\n        approveds = new bool[](numberOfProposal);\r\n        authors = new address[](numberOfProposal);\r\n        votes = new bool[](numberOfProposal*voters.length);\r\n        \r\n        for(uint64 i = 0; i < numberOfProposal; i++){\r\n            starts[i] = proposals[i].slot_start_proposal;\r\n            approveds[i] = proposals[i].approved;\r\n            authors[i] = proposals[i].author;\r\n        \r\n            for(uint64 j = 0; j < voters.length; j++){\r\n                votes[i*voters.length+j] = proposals[i].votes[voters[j]];\r\n            }\r\n        }\r\n       \r\n        return (starts, approveds, authors, votes);\r\n    }\r\n\r\n   function TimeSlotVote(uint64 _span_in_ms, address[] _voters ) public{\r\n       owner = msg.sender;\r\n       span_in_ms = _span_in_ms;\r\n       voters = _voters;\r\n       //For performance reason\r\n       require(voters.length < 21);\r\n       for(uint64 i = 0; i < voters.length; i++){\r\n           votersMap[voters[i]] = true;\r\n       }\r\n   }\r\n   \r\n   function makeProposalAsOwner(uint64 _slot_start_proposal) public onlyOwner {\r\n       TimeSlotProposal storage p = proposals[numberOfProposal++];\r\n       p.slot_start_proposal = _slot_start_proposal;\r\n       p.author = msg.sender;\r\n       p.approved = true;\r\n   }\r\n   \r\n   function makeProposalAsVoter(uint64 _slot_start_proposal) public onlyVoters {\r\n       TimeSlotProposal storage p = proposals[numberOfProposal++];\r\n       p.slot_start_proposal = _slot_start_proposal;\r\n       p.author = msg.sender;\r\n       p.approved = false;\r\n   }\r\n   \r\n   function approveProposal(uint64 proposalIndex) public onlyOwner\r\n        onlyIfProposalExistAtIndex(proposalIndex){\r\n       proposals[proposalIndex].approved = true;\r\n   }\r\n   \r\n   function voteForProposalAtIndex(uint64 proposalIndex) public onlyVoters\r\n    onlyIfProposalExistAtIndex(proposalIndex)\r\n    onlyIfProposalIsApproved(proposals[proposalIndex]){\r\n       proposals[proposalIndex].votes[msg.sender] = true;\r\n   }\r\n   \r\n   modifier onlyOwner {\r\n        require(msg.sender == owner);\r\n        _;\r\n   }\r\n   \r\n   modifier onlyVoters {\r\n       require(votersMap[msg.sender]);\r\n       _;\r\n   }\r\n   \r\n   modifier onlyIfProposalExistAtIndex(uint64 proposalIndex){\r\n       require(proposalIndex<numberOfProposal);\r\n       _;\r\n   }\r\n   \r\n   modifier onlyIfProposalIsApproved(TimeSlotProposal p){\r\n       require (p.approved);\r\n       _;\r\n   }\r\n   function close() public onlyOwner {\r\n        selfdestruct(owner);\r\n   }\r\n}",
  "sourcePath": "C:\\Users\\Semako\\workspace_vsc\\didoob\\truffle\\contracts\\TimeSlotPlanning.sol",
  "compiler": {
    "name": "solc",
    "version": "0.4.18+commit.9cf6e910.Emscripten.clang"
  },
  "schemaVersion": "1.0.1",
  "updatedAt": "2018-01-14T16:41:45.981Z"
}